{
  "_format": "hh-sol-artifact-1",
  "contractName": "GameContract",
  "sourceName": "contracts/Game.sol",
  "abi": [
    {
      "inputs": [],
      "stateMutability": "nonpayable",
      "type": "constructor"
    },
    {
      "anonymous": false,
      "inputs": [
        {
          "indexed": false,
          "internalType": "enum GameContract.GameOutcome",
          "name": "",
          "type": "uint8"
        }
      ],
      "name": "GetGameOutcome",
      "type": "event"
    },
    {
      "inputs": [
        {
          "internalType": "string",
          "name": "a",
          "type": "string"
        },
        {
          "internalType": "string",
          "name": "b",
          "type": "string"
        }
      ],
      "name": "compareStrings",
      "outputs": [
        {
          "internalType": "bool",
          "name": "",
          "type": "bool"
        }
      ],
      "stateMutability": "view",
      "type": "function"
    },
    {
      "inputs": [],
      "name": "deposit",
      "outputs": [],
      "stateMutability": "payable",
      "type": "function"
    },
    {
      "inputs": [
        {
          "internalType": "string",
          "name": "gameCode",
          "type": "string"
        },
        {
          "internalType": "string",
          "name": "afterMatchDataURI",
          "type": "string"
        },
        {
          "internalType": "string",
          "name": "result",
          "type": "string"
        }
      ],
      "name": "endGame",
      "outputs": [],
      "stateMutability": "nonpayable",
      "type": "function"
    },
    {
      "inputs": [
        {
          "internalType": "string",
          "name": "",
          "type": "string"
        }
      ],
      "name": "games",
      "outputs": [
        {
          "internalType": "address",
          "name": "playerOne",
          "type": "address"
        },
        {
          "internalType": "address",
          "name": "playerTwo",
          "type": "address"
        },
        {
          "internalType": "uint256",
          "name": "stake",
          "type": "uint256"
        },
        {
          "internalType": "string",
          "name": "gameCode",
          "type": "string"
        },
        {
          "internalType": "string",
          "name": "beforeMatchDataURI",
          "type": "string"
        },
        {
          "internalType": "string",
          "name": "afterMatchDataURI",
          "type": "string"
        },
        {
          "internalType": "enum GameContract.GameStatus",
          "name": "status",
          "type": "uint8"
        },
        {
          "internalType": "enum GameContract.GameOutcome",
          "name": "outcome",
          "type": "uint8"
        }
      ],
      "stateMutability": "view",
      "type": "function"
    },
    {
      "inputs": [
        {
          "internalType": "string",
          "name": "gameCode",
          "type": "string"
        }
      ],
      "name": "getGameDetails",
      "outputs": [
        {
          "internalType": "string",
          "name": "URI",
          "type": "string"
        }
      ],
      "stateMutability": "view",
      "type": "function"
    },
    {
      "inputs": [
        {
          "internalType": "address",
          "name": "playerAddress",
          "type": "address"
        }
      ],
      "name": "getPlayerBalance",
      "outputs": [
        {
          "internalType": "uint256",
          "name": "playerBalance",
          "type": "uint256"
        }
      ],
      "stateMutability": "view",
      "type": "function"
    },
    {
      "inputs": [
        {
          "internalType": "enum GameContract.GameOutcome",
          "name": "",
          "type": "uint8"
        }
      ],
      "name": "outcomes",
      "outputs": [
        {
          "internalType": "string",
          "name": "",
          "type": "string"
        }
      ],
      "stateMutability": "view",
      "type": "function"
    },
    {
      "inputs": [
        {
          "internalType": "string",
          "name": "gameCode",
          "type": "string"
        }
      ],
      "name": "participateGame",
      "outputs": [],
      "stateMutability": "nonpayable",
      "type": "function"
    },
    {
      "inputs": [
        {
          "internalType": "address",
          "name": "",
          "type": "address"
        }
      ],
      "name": "playerBalances",
      "outputs": [
        {
          "internalType": "uint256",
          "name": "",
          "type": "uint256"
        }
      ],
      "stateMutability": "view",
      "type": "function"
    },
    {
      "inputs": [
        {
          "internalType": "string",
          "name": "gameCode",
          "type": "string"
        },
        {
          "internalType": "string",
          "name": "beforeMatchDataURI",
          "type": "string"
        },
        {
          "internalType": "address",
          "name": "opponent",
          "type": "address"
        },
        {
          "internalType": "uint256",
          "name": "stake",
          "type": "uint256"
        }
      ],
      "name": "startGame",
      "outputs": [],
      "stateMutability": "nonpayable",
      "type": "function"
    },
    {
      "inputs": [],
      "name": "withdraw",
      "outputs": [],
      "stateMutability": "nonpayable",
      "type": "function"
    }
  ],
  "bytecode": "60806040523480156200001157600080fd5b5060016000908155604080518082019091526004808252636472617760e01b60208084019182529380529252516200006b917f17ef568e3e12ab5b9c7254a8d58478811de00f9e6eb34345acd53bf8fd09d3ec916200012a565b50604080518082019091526009815268706c617965724f6e6560b81b60208083019182526001600052600490529051620000c7917fabd6e7cb50984ff9c2f3e18a2660c3353dadf4e3291deeb275dae2cd1e44fe05916200012a565b50604080518082019091526009815268706c6179657254776f60b81b6020808301918252600260005260049052905162000123917f91da3fd0782e51c6b3986e9e672fd566868e71f3dbc2d6c2cd6fbb3e361af2a7916200012a565b506200020d565b8280546200013890620001d0565b90600052602060002090601f0160209004810192826200015c5760008555620001a7565b82601f106200017757805160ff1916838001178555620001a7565b82800160010185558215620001a7579182015b82811115620001a75782518255916020019190600101906200018a565b50620001b5929150620001b9565b5090565b5b80821115620001b55760008155600101620001ba565b600181811c90821680620001e557607f821691505b602082108114156200020757634e487b7160e01b600052602260045260246000fd5b50919050565b61173f806200021d6000396000f3fe60806040526004361061009c5760003560e01c80636d20931a116100645780636d20931a1461014e5780637b38314c14610182578063bed34bba146101bd578063d0e30db0146101ed578063d43077e6146101f5578063e2734c931461021557600080fd5b80630a356624146100a15780632ab9cc30146100c35780633b80e6ca146100f95780633ccfd60b146101195780633e42bb331461012e575b600080fd5b3480156100ad57600080fd5b506100c16100bc366004611480565b61024b565b005b3480156100cf57600080fd5b506100e36100de366004611363565b61071f565b6040516100f091906115da565b60405180910390f35b34801561010557600080fd5b506100c1610114366004611363565b610847565b34801561012557600080fd5b506100c1610a89565b34801561013a57600080fd5b506100c1610149366004611404565b610bdb565b34801561015a57600080fd5b5061016e610169366004611363565b610e37565b6040516100f0989796959493929190611550565b34801561018e57600080fd5b506101af61019d366004611327565b60026020526000908152604090205481565b6040519081526020016100f0565b3480156101c957600080fd5b506101dd6101d83660046113a0565b611033565b60405190151581526020016100f0565b6100c161108c565b34801561020157600080fd5b506100e3610210366004611342565b611120565b34801561022157600080fd5b506101af610230366004611327565b6001600160a01b031660009081526002602052604090205490565b600160038460405161025d9190611534565b9081526040519081900360200190206006015460ff166002811115610284576102846116bc565b146102e45760405162461bcd60e51b815260206004820152602560248201527f4d6174636820646964206e6f742073746172746564206f7220696e76616c696460448201526420636f646560d81b60648201526084015b60405180910390fd5b61039c816004600060025b6002811115610300576103006116bc565b815260200190815260200160002080546103199061166b565b80601f01602080910402602001604051908101604052809291908181526020018280546103459061166b565b80156103925780601f1061036757610100808354040283529160200191610392565b820191906000526020600020905b81548152906001019060200180831161037557829003601f168201915b5050505050611033565b806103b057506103b08160046000806102ef565b806103c557506103c5816004600060016102ef565b6104025760405162461bcd60e51b815260206004820152600e60248201526d125b9d985b1a590814995cdd5b1d60921b60448201526064016102db565b60026003846040516104149190611534565b908152604051908190036020019020600601805460ff19166001836002811115610440576104406116bc565b0217905550816003846040516104569190611534565b9081526020016040518091039020600501908051906020019061047a9291906111e5565b50600060038460405161048d9190611534565b908152604051908190036020018120546001600160a01b031691506000906003906104b9908790611534565b908152604051908190036020018120600101546001600160a01b031691506000906003906104e8908890611534565b90815260405190819003602001902060020154905061050b8460046000806102ef565b156105c55760006003876040516105229190611534565b908152604051908190036020019020600601805461ff001916610100836002811115610550576105506116bc565b02179055506001600160a01b03831660009081526002602052604090205461057890826111ba565b6001600160a01b0380851660009081526002602052604080822093909355908416815220546105a790826111ba565b6001600160a01b038316600090815260026020526040902055610717565b6105d4846004600060016102ef565b156106705760016003876040516105eb9190611534565b908152604051908190036020019020600601805461ff001916610100836002811115610619576106196116bc565b0217905550600061062b8260026111cd565b6001600160a01b03851660009081526002602052604090205490915061065190826111ba565b6001600160a01b03851660009081526002602052604090205550610717565b61067f846004600060026102ef565b156107175760026003876040516106969190611534565b908152604051908190036020019020600601805461ff0019166101008360028111156106c4576106c46116bc565b021790555060006106d68260026111cd565b6001600160a01b0384166000908152600260205260409020549091506106fc90826111ba565b6001600160a01b038416600090815260026020526040902055505b505050505050565b606060006003836040516107339190611534565b9081526040519081900360200190206006015460ff16600281111561075a5761075a6116bc565b146107965760405162461bcd60e51b815260206004820152600c60248201526b496e76616c696420436f646560a01b60448201526064016102db565b6003826040516107a69190611534565b908152602001604051809103902060040180546107c29061166b565b80601f01602080910402602001604051908101604052809291908181526020018280546107ee9061166b565b801561083b5780601f106108105761010080835404028352916020019161083b565b820191906000526020600020905b81548152906001019060200180831161081e57829003601f168201915b50505050509050919050565b336001600160a01b03166003826040516108619190611534565b908152604051908190036020019020600101546001600160a01b0316146108d55760405162461bcd60e51b815260206004820152602260248201527f596f7520617265206e6f7420506c61796572203220666f7220746869732067616044820152616d6560f01b60648201526084016102db565b60006003826040516108e79190611534565b9081526040519081900360200190206006015460ff16600281111561090e5761090e6116bc565b146109785760405162461bcd60e51b815260206004820152603460248201527f47616d65206e6f742073746172746564206f722068617320616c7265616479206044820152733132b2b7103830b93a34b1b4b830ba32b21034b760611b60648201526084016102db565b600060038260405161098a9190611534565b908152602001604051809103902060020154905060026000336001600160a01b03166001600160a01b0316815260200190815260200160002054811115610a135760405162461bcd60e51b815260206004820152601d60248201527f506c617965722066756e64732061726520696e73756666696369656e7400000060448201526064016102db565b33600090815260026020526040902054610a2d90826111d9565b33600090815260026020526040908190209190915551600190600390610a54908590611534565b908152604051908190036020019020600601805460ff19166001836002811115610a8057610a806116bc565b02179055505050565b60026000541415610adc5760405162461bcd60e51b815260206004820152601f60248201527f5265656e7472616e637947756172643a207265656e7472616e742063616c6c0060448201526064016102db565b60026000818155338152602091909152604090205480610b2b5760405162461bcd60e51b815260206004820152600a6024820152694e6f2062616c616e636560b01b60448201526064016102db565b336000818152600260205260408082208290555190919083908381818185875af1925050503d8060008114610b7c576040519150601f19603f3d011682016040523d82523d6000602084013e610b81565b606091505b5050905080610bd25760405162461bcd60e51b815260206004820152601760248201527f7769746864726177206661696c656420746f2073656e6400000000000000000060448201526064016102db565b50506001600055565b6001600160a01b03821615801590610bfc57506001600160a01b0382163314155b610c485760405162461bcd60e51b815260206004820152601f60248201527f456e74657220612076616c6964206f70706f6e656e742061646465726573730060448201526064016102db565b33600090815260026020526040902054811115610ca75760405162461bcd60e51b815260206004820152601e60248201527f506c61796572732066756e64732061726520696e73756666696369656e74000060448201526064016102db565b33600090815260026020526040902054610cc190826111d9565b336000908152600260205260409081902091909155518490600390610ce7908390611534565b90815260200160405180910390206003019080519060200190610d0b9291906111e5565b5033600385604051610d1d9190611534565b90815260405190819003602001812080546001600160a01b03939093166001600160a01b0319909316929092179091558290600390610d5d908790611534565b908152602001604051809103902060010160006101000a8154816001600160a01b0302191690836001600160a01b0316021790555080600385604051610da39190611534565b9081526020016040518091039020600201819055506000600385604051610dca9190611534565b908152604051908190036020019020600601805460ff19166001836002811115610df657610df66116bc565b021790555082600385604051610e0c9190611534565b90815260200160405180910390206004019080519060200190610e309291906111e5565b5050505050565b8051808201602090810180516003808352938301929094019190912092905281546001830154600284015492840180546001600160a01b0393841695929093169392610e829061166b565b80601f0160208091040260200160405190810160405280929190818152602001828054610eae9061166b565b8015610efb5780601f10610ed057610100808354040283529160200191610efb565b820191906000526020600020905b815481529060010190602001808311610ede57829003601f168201915b505050505090806004018054610f109061166b565b80601f0160208091040260200160405190810160405280929190818152602001828054610f3c9061166b565b8015610f895780601f10610f5e57610100808354040283529160200191610f89565b820191906000526020600020905b815481529060010190602001808311610f6c57829003601f168201915b505050505090806005018054610f9e9061166b565b80601f0160208091040260200160405190810160405280929190818152602001828054610fca9061166b565b80156110175780601f10610fec57610100808354040283529160200191611017565b820191906000526020600020905b815481529060010190602001808311610ffa57829003601f168201915b5050506006909301549192505060ff8082169161010090041688565b6000816040516020016110469190611534565b604051602081830303815290604052805190602001208360405160200161106d9190611534565b6040516020818303038152906040528051906020012014905092915050565b600034116110f45760405162461bcd60e51b815260206004820152602f60248201527f506c65617365204465706f73697420612076616c696420616d6f756e7420677260448201526e6561746572207468616e207a65726f60881b60648201526084016102db565b3360009081526002602052604090205461110e90346111ba565b33600090815260026020526040902055565b600460205260009081526040902080546111399061166b565b80601f01602080910402602001604051908101604052809291908181526020018280546111659061166b565b80156111b25780601f10611187576101008083540402835291602001916111b2565b820191906000526020600020905b81548152906001019060200180831161119557829003601f168201915b505050505081565b60006111c682846115ed565b9392505050565b60006111c68284611605565b60006111c68284611624565b8280546111f19061166b565b90600052602060002090601f0160209004810192826112135760008555611259565b82601f1061122c57805160ff1916838001178555611259565b82800160010185558215611259579182015b8281111561125957825182559160200191906001019061123e565b50611265929150611269565b5090565b5b80821115611265576000815560010161126a565b80356001600160a01b038116811461129557600080fd5b919050565b600082601f8301126112ab57600080fd5b813567ffffffffffffffff808211156112c6576112c66116d2565b604051601f8301601f19908116603f011681019082821181831017156112ee576112ee6116d2565b8160405283815286602085880101111561130757600080fd5b836020870160208301376000602085830101528094505050505092915050565b60006020828403121561133957600080fd5b6111c68261127e565b60006020828403121561135457600080fd5b8135600381106111c657600080fd5b60006020828403121561137557600080fd5b813567ffffffffffffffff81111561138c57600080fd5b6113988482850161129a565b949350505050565b600080604083850312156113b357600080fd5b823567ffffffffffffffff808211156113cb57600080fd5b6113d78683870161129a565b935060208501359150808211156113ed57600080fd5b506113fa8582860161129a565b9150509250929050565b6000806000806080858703121561141a57600080fd5b843567ffffffffffffffff8082111561143257600080fd5b61143e8883890161129a565b9550602087013591508082111561145457600080fd5b506114618782880161129a565b9350506114706040860161127e565b9396929550929360600135925050565b60008060006060848603121561149557600080fd5b833567ffffffffffffffff808211156114ad57600080fd5b6114b98783880161129a565b945060208601359150808211156114cf57600080fd5b6114db8783880161129a565b935060408601359150808211156114f157600080fd5b506114fe8682870161129a565b9150509250925092565b6000815180845261152081602086016020860161163b565b601f01601f19169290920160200192915050565b6000825161154681846020870161163b565b9190910192915050565b6001600160a01b03898116825288166020820152604081018790526101006060820181905260009061158483820189611508565b905082810360808401526115988188611508565b905082810360a08401526115ac8187611508565b9150506115b8846116e8565b8360c08301526115c7836116e8565b8260e08301529998505050505050505050565b6020815260006111c66020830184611508565b60008219821115611600576116006116a6565b500190565b600081600019048311821515161561161f5761161f6116a6565b500290565b600082821015611636576116366116a6565b500390565b60005b8381101561165657818101518382015260200161163e565b83811115611665576000848401525b50505050565b600181811c9082168061167f57607f821691505b602082108114156116a057634e487b7160e01b600052602260045260246000fd5b50919050565b634e487b7160e01b600052601160045260246000fd5b634e487b7160e01b600052602160045260246000fd5b634e487b7160e01b600052604160045260246000fd5b6003811061170657634e487b7160e01b600052602160045260246000fd5b5056fea264697066735822122045a3b7887854891981be4acd2f0a0efda7648bbef6522be3ec582de9afd69f8764736f6c63430008070033",
  "linkReferences": {},
  "deployedLinkReferences": {}
}